S01700004763634170706C69636174696F6E352E7372656357
S11300000C9434000C9449000C9449000C9449005D
S11300100C9449000C9449000C9449000C94490038
S11300200C9449000C9449000C9449000C94490028
S11300300C9449000C9449000C9449000C94490018
S11300400C9449000C9449000C9449000C94490008
S11300500C9449000C9449000C9449000C944900F8
S11300600C9449000C94490011241FBECFEFD8E032
S1130070DEBFCDBF11E0A0E0B1E0E2E9F4E002C0F0
S113008005900D92A431B107D9F70E94D9000C94C0
S113009047020C94000085B1846085B985E08A9597
S11300A0F1F7000085B18B7F85B98FE891E0019766
S11300B0F1F700C0000008952BB130E1839FC00127
S11300C011242F70822B8BB90E944B000895CF937B
S11300D0C82F662321F085B1816085B903C085B13D
S11300E08E7F85B985B18D7F85B98C2F82958F7070
S11300F00E945C008C2F8F700E945C00CF91089549
S113010060E081E00E9467008FE39FE10197F1F7CF
S113011000C0000008958AB1806F8AB984B18760F5
S113012084B92FEF89EF90E0215080409040E1F7AF
S113013000C0000083E00E945C008FE19EE4019710
S1130140F1F700C0000083E00E945C0087E592E0C4
S11301500197F1F700C0000083E00E945C0082E098
S11301600E945C0060E088E20E94670060E08CE02E
S11301700E94670060E086E00E9467000E948000A1
S11301800895611102C090E801C090EC60E0890F0D
S11301900E9467000895CF93DF93EC0104C0219679
S11301A061E00E94670088818111F9CFDF91CF91CE
S11301B00895CF93DF9300D01F92CDB7DEB780E8C8
S11301C095E20E9431010E9475010E948B000E94F9
S11301D0800060E080E00E94C10080E091E00E9425
S11301E0CB0061E080E00E94C10089E091E00E94C0
S11301F0CB0087B1816087B988B18E7F88B941E02F
S113020050E0BE016F5F7F4F83E00E94D5012FEF66
S113021081EE94E0215080409040E1F700C000005E
S11302200E947C0160E08AE00E94C10080E191E0CC
S11302300E94CB0061E08AE00E94C10089818A8328
S11302401B82CE0102960E94CB00898187548330A1
S113025020F488B1816088B9D2CF88B18E7F88B903
S1130260CECF82959295907F9827807F98279C0186
S113027040E050E060E074E284EF90E00E942502E8
S1130280215031093093C5002093C40088E1809344
S1130290C10086E08093C20008958091C000882345
S11302A0E4F78091C6000895CF92DF92EF92FF9217
S11302B00F931F93CF93DF936C017B01C0E0D0E0D9
S11302C008C086010C0F1D1F0E944D01F801808398
S11302D02196CE15DF05A8F3DF91CF911F910F91E1
S11302E0FF90EF90DF90CF9008958AB184608AB92F
S11302F08BB18B7F8BB908958BB18B7F8BB98FE3D7
S11303009CE90197F1F700C000000895DC0140E08A
S113031050E08FEF9FEF17C0FD01E40FF51F208120
S1130320822720E00CC080FF07C09695879531E0B6
S1130330832730EA932702C0969587952F5F28304C
S113034090F34F5F5F4F4617570730F30895EF92CE
S1130350FF920F931F93CF93DF9362307105E8F000
S1130360EB018C017B0182E0E81AF108B701C801B6
S11303700E948601C00FD11F2197288130E0322FBF
S11303802227F801EE0DFF1D4081242B41E0821746
S1130390930709F040E0842F01C080E0DF91CF9102
S11303A01F910F91FF90EF900895BF92CF92DF922B
S11303B0EF92FF920F931F93CF93DF93CDB7DEB7E6
S11303C0DA950FB6F894DEBF0FBECDBFB82E7B0111
S11303D08A010E947C01680183E0C80ED11CB60129
S11303E0CE0101960E94540189818B111BC0B60174
S11303F0CE0101960E94A70181110EC013C0D7013E
S1130400A80FB91F0196E1E0F0E0EC0FFD1FE80F23
S1130410F91F20812C9302C080E090E0801791079F
S113042070F303C08FEFF7018083D3950FB6F89470
S1130430DEBF0FBECDBFDF91CF911F910F91FF9013
S1130440EF90DF90CF90BF900895A1E21A2EAA1BDF
S1130450BB1BFD010DC0AA1FBB1FEE1FFF1FA21770
S1130460B307E407F50720F0A21BB30BE40BF50B6D
S1130470661F771F881F991F1A9469F760957095F6
S1130480809590959B01AC01BD01CF010895F8942E
S1050490FFCF98
S1130492536C617665313A2000446174613A2000FC
S10704A25265630038
S9030000FC
