S00E0000536C617665332E73726563E8
S11300000C9434000C9449000C9449000C9449005D
S11300100C9449000C9449000C9449000C94490038
S11300200C9449000C9449000C9449000C94490028
S11300300C9449000C9449000C9449000C94490018
S11300400C9449000C9449000C9449000C94490008
S11300500C9449000C9449000C9449000C944900F8
S11300600C9449000C94490011241FBECFEFD8E032
S1130070DEBFCDBF11E0A0E0B1E0E4E4F5E002C0F2
S113008005900D92A633B107D9F70E94D9000C94BC
S1130090A0020C94000085B1846085B985E08A953E
S11300A0F1F7000085B18B7F85B98FE891E0019766
S11300B0F1F700C0000008952BB130E1839FC00127
S11300C011242F70822B8BB90E944B000895CF937B
S11300D0C82F662321F085B1816085B903C085B13D
S11300E08E7F85B985B18D7F85B98C2F82958F7070
S11300F00E945C008C2F8F700E945C00CF91089549
S113010060E081E00E9467008FE39FE10197F1F7CF
S113011000C0000008958AB1806F8AB984B18760F5
S113012084B92FEF89EF90E0215080409040E1F7AF
S113013000C0000083E00E945C008FE19EE4019710
S1130140F1F700C0000083E00E945C0087E592E0C4
S11301500197F1F700C0000083E00E945C0082E098
S11301600E945C0060E088E20E94670060E08CE02E
S11301700E94670060E086E00E9467000E948000A1
S11301800895611102C090E801C090EC60E0890F0D
S11301900E9467000895CF93DF93EC0104C0219679
S11301A061E00E94670088818111F9CFDF91CF91CE
S11301B00895CF93DF93CDB7DEB762970FB6F89467
S11301C0DEBF0FBECDBF80E895E20E9488010E9489
S11301D0CC010E948B000E94800060E080E00E94BD
S11301E0C10080E091E00E94CB0061E080E00E94C9
S11301F0C10089E091E00E94CB001B821A82FE01BB
S113020034968FE0DF011D928A95E9F787B181600A
S113021087B988B18E7F88B910E041E050E0BE0113
S11302206F5F7F4F83E00E942C02882309F451C042
S1130230898190EE980F9F35D8F4DE011296FD0166
S113024001900020E9F73197EA1BFB0BE03180F4C1
S1130250FF27A2E0B0E0AC0FBD1FAE0FBF1F8C9311
S1130260319682E090E08C0F9D1FE80FF91F1082F9
S113027060E08AE00E94C10080E191E00E94CB002E
S113028061E080E00E94C10085E191E00E94CB0022
S113029061E086E00E94C100CE0102960E94CB007C
S11302A08981883461F0853651F08C3641F08F367F
S11302B031F0833521F0813611F0863729F488B185
S11302C0816088B910E01AC088B18E7F88B910E0C7
S11302D015C01F5F1A3090F01A8260E08AE00E9415
S11302E0C10080E391E00E94CB0061E080E00E94C5
S11302F0C10084E291E00E94CB001AE09FEFA1EEDE
S1130300B4E09150A040B040E1F700C0000085CFB8
S113031082959295907F9827807F98279C0140E052
S113032050E060E074E284EF90E00E947E0221508D
S113033031093093C5002093C40088E18093C10043
S113034086E08093C20008958091C0008823E4F77A
S11303508091C6000895CF92DF92EF92FF920F939F
S11303601F93CF93DF936C017B01C0E0D0E008C002
S113037086010C0F1D1F0E94A401F80180832196A1
S1130380CE15DF05A8F3DF91CF911F910F91FF9058
S1130390EF90DF90CF9008958AB184608AB98BB1D1
S11303A08B7F8BB908958BB18B7F8BB98FE39CE9DD
S11303B00197F1F700C000000895DC0140E050E02F
S11303C08FEF9FEF17C0FD01E40FF51F20818227F7
S11303D020E00CC080FF07C09695879531E0832705
S11303E030EA932702C0969587952F5F283090F3C3
S11303F04F5F5F4F4617570730F30895EF92FF9210
S11304000F931F93CF93DF9362307105E8F0EB01F4
S11304108C017B0182E0E81AF108B701C8010E944F
S1130420DD01C00FD11F2197288130E0322F222710
S1130430F801EE0DFF1D4081242B41E08217930744
S113044009F040E0842F01C080E0DF91CF911F913B
S11304500F91FF90EF900895BF92CF92DF92EF92A9
S1130460FF920F931F93CF93DF93CDB7DEB7DA9547
S11304700FB6F894DEBF0FBECDBFB82E7B018A0144
S11304800E94D301680183E0C80ED11CB601CE01DD
S113049001960E94AB0189818B111CC0B601CE016B
S11304A001960E94FE0181110EC014C0D701A80F4D
S11304B0B91F0196E1E0F0E0EC0FFD1FE80FF91F12
S11304C020812C9302C080E090E08017910770F3A4
S11304D081E004C08FEFF701808380E0D3950FB6ED
S11304E0F894DEBF0FBECDBFDF91CF911F910F9166
S11304F0FF90EF90DF90CF90BF900895A1E21A2E65
S1130500AA1BBB1BFD010DC0AA1FBB1FEE1FFF1FB3
S1130510A217B307E407F50720F0A21BB30BE40B03
S1130520F50B661F771F881F991F1A9469F760954A
S11305307095809590959B01AC01BD01CF01089504
S1070540F894FFCF59
S1130544536C617665333A2000446174613A200047
S11305545265632000446174613A202020202020E5
S113056420202000446174613A202020202020208F
S1090574202020200000FD
S9030000FC
