:100000000C9434000C9449000C9449000C94490061
:100010000C9449000C9449000C9449000C9449003C
:100020000C9449000C9449000C9449000C9449002C
:100030000C9449000C9449000C9449000C9449001C
:100040000C9449000C9449000C9449000C9449000C
:100050000C9449000C9449000C9449000C944900FC
:100060000C9449000C94490011241FBECFEFD8E036
:10007000DEBFCDBF11E0A0E0B1E0EAE6F5E002C0EE
:1000800005900D92A631B107D9F70E94D9000C94C2
:10009000B3020C94000085B1846085B985E08A952F
:1000A000F1F7000085B18B7F85B98FE891E001976A
:1000B000F1F700C0000008952BB130E1839FC0012B
:1000C00011242F70822B8BB90E944B000895CF937F
:1000D000C82F662321F085B1816085B903C085B141
:1000E0008E7F85B985B18D7F85B98C2F82958F7074
:1000F0000E945C008C2F8F700E945C00CF9108954D
:1001000060E081E00E9467008FE39FE10197F1F7D3
:1001100000C0000008958AB1806F8AB984B18760F9
:1001200084B92FEF89EF90E0215080409040E1F7B3
:1001300000C0000083E00E945C008FE19EE4019714
:10014000F1F700C0000083E00E945C0087E592E0C8
:100150000197F1F700C0000083E00E945C0082E09C
:100160000E945C0060E088E20E94670060E08CE032
:100170000E94670060E086E00E9467000E948000A5
:100180000895611102C090E801C090EC60E0890F11
:100190000E9467000895CF93DF93EC0104C021967D
:1001A00061E00E94670088818111F9CFDF91CF91D2
:1001B0000895CF93DF93CDB7DEB72B970FB6F894A2
:1001C000DEBF0FBECDBF80E895E20E94BE010E9457
:1001D000FD010E948B000E94800060E080E00E9490
:1001E000C10080E091E00E94CB0061E080E00E94CD
:1001F000C10089E091E00E94CB0081E4898382E420
:100200008A8383E48B8384E48C8385E48D8386E412
:100210008E8387E48F8388E4888789E48987F12C3B
:100220002CC001E010E00C0F1D1F0F0D111D41E04F
:1002300050E0B80181E00E9439022FEF81EE94E096
:10024000215080409040E1F700C000000E940E0263
:1002500060E08AE00E94C10080E191E00E94CB0052
:1002600061E08AE00E94C100F80180818A871B86D4
:10027000CE010A960E94CB00F394F2E0FF1588F6B7
:100280002FEF83ED90E3215080409040E1F700C0D4
:100290000000F12C2CC004E010E00C0F1D1F0F0D0E
:1002A000111D41E050E0B80182E00E943902EFEFF9
:1002B000F1EE24E0E150F0402040E1F700C0000002
:1002C0000E940E0260E08AE00E94C10080E191E09D
:1002D0000E94CB0061E08AE00E94C100F8018081A9
:1002E0008A871B86CE010A960E94CB00F394F2E027
:1002F000FF1588F62FEF83ED90E32150804090406A
:10030000E1F700C00000F12C2CC007E010E00C0F5A
:100310001D1F0F0D111D41E050E0B80183E00E9448
:100320003902EFEFF1EE24E0E150F0402040E1F738
:1003300000C000000E940E0260E08AE00E94C1003E
:1003400080E191E00E94CB0061E08AE00E94C10060
:10035000F80180818A871B86CE010A960E94CB0015
:10036000F394F2E0FF1588F62FEF83ED90E3215030
:1003700080409040E1F700C0000051CF82959295F7
:10038000907F9827807F98279C0140E050E060E0B4
:1003900074E284EF90E00E94910221503109309381
:1003A000C5002093C40088E18093C10086E080935B
:1003B000C20008959091C00095FFFCCF8093C600C5
:1003C0000895EF92FF920F931F93CF93DF937C01D9
:1003D0008B01C0E0D0E007C0F701EC0FFD1F80816A
:1003E0000E94DA012196C017D107B0F3DF91CF91B7
:1003F0001F910F91FF90EF9008958AB184608AB9A0
:100400008BB18B7F8BB908958BB184608BB98FE3EF
:100410009CE90197F1F700C0000008958BB18B7F34
:100420008BB98FE39CE90197F1F700C000000895B4
:10043000DC0140E050E08FEF9FEF17C0FD01E40FBB
:10044000F51F2081822720E00CC080FF07C0969511
:10045000879531E0832730EA932702C096958795E8
:100460002F5F283090F34F5F5F4F4617570730F3E9
:100470000895CF92DF92EF92FF920F931F93CF9345
:10048000DF93CDB7DEB7DA950FB6F894DEBF0FBEB7
:10049000CDBF182F6B017A010E940402198380E0FE
:1004A00090E001E010E00EC0F601E80FF91F208196
:1004B000E1E0F0E0EC0FFD1FE00FF11F208301965B
:1004C0000F5F1F4F8E159F0578F3B801CE0101967F
:1004D0000E94180298012F5F3F4FE1E0F0E0EC0F1F
:1004E000FD1FE00FF11F8083B8016E5F7F4FE1E0D9
:1004F000F0E0EC0FFD1FE20FF31F9083CE01019699
:100500000E94E101D3950FB6F894DEBF0FBECDBFB8
:10051000DF91CF911F910F91FF90EF90DF90CF90DF
:100520000895A1E21A2EAA1BBB1BFD010DC0AA1F34
:10053000BB1FEE1FFF1FA217B307E407F50720F04C
:10054000A21BB30BE40BF50B661F771F881F991FC7
:100550001A9469F760957095809590959B01AC0110
:0A056000BD01CF010895F894FFCF0C
:10056A004D61737465723A2000446174613A2000E7
:06057A005472616E730073
:00000001FF
